:020000040000FA
:060000000A128A110C280F
:10000800FE00030EF0000A08F1000A128A11C62940
:100018000A128A110F28FA01FB0183010A128A11B8
:1000280015280A128A1173210A128A110A128A11D2
:10003800BD210A128A115130F2000030F3000A1271
:100048008A11AA210A128A110030F200F3000A125A
:100058008A1145210A128A11720883120313860035
:100068000A128A11B4210A128A1102308312031368
:10007800B0000430AF00B930AE00AE0B4128AF0B72
:100088004128B00B412848280A128A11BD210A12BA
:100098008A118030F2000030F3000A128A11AA2176
:1000A8000A128A11F330F2000030F3000A128A11A2
:1000B800AA210A128A110A128A11B4210A128A1173
:1000C800023083120313B0000430AF00B930AE0021
:1000D800AE0B6C28AF0B6C28B00B6C2873280A1277
:1000E8008A11BD210A128A118130F2000030F30012
:1000F8000A128A11AA210A128A110030F200F300AA
:100108000A128A1145210A128A11720883120313EE
:1001180088000A128A11B4210A128A110230831245
:100128000313B0000430AF00B930AE00AE0B9A280C
:10013800AF0B9A28B00B9A28A1281A280A128A11FC
:100148000C28003083120313A4000030A3000030F1
:10015800A2000030A1007508740473047204031926
:10016800B628B7280429A501A50AC7280130A00088
:100178000310F20DF30DF40DF50DA00BBC280130A2
:10018800A0002008A507F51FCA28CB28BA280130E7
:10019800A0000310A10DA20DA30DA40DA00BCD2846
:1001A80075087902031DE22874087802031DE22805
:1001B80073087702031DE22872087602031CE528FB
:1001C800E628F5287208F6027308031C730FF70275
:1001D8007408031C740FF8027508031C750FF902E4
:1001E800211401300310F50CF40CF30CF20CFF3E53
:1001F800031DF6280130A502031D03290429CB2875
:100208002408F5002308F4002208F3002108F2006E
:1002180008002830831203139400831603139101F6
:10022800831203132608AA002708AB002808AC008D
:100238002908AD0002300310AA0DAB0DAC0DAD0DB1
:10024800FF3E031D1F292D08F5002C08F4002B087C
:10025800F3002A08F2000030F9007A30F800123072
:10026800F7000030F6000A128A11A5200A128A1136
:100278007208FF3E8316031393009401871507162F
:1002880008000A128A119D210A128A118316031383
:1002980091150A128A119D210A128A1183120313D9
:1002A8001308F400F5017408F6007508F7000A123F
:1002B8008A119D210A128A1172037304031D65298C
:1002C80066296A298316031391126D29831603136D
:1002D800911611167708F3007608F20008008316C5
:1002E80003178801890183160313860183120313F8
:1002F800860183160313880183120313850186017F
:10030800870188018901831603130F128F160F17AF
:100318000F14003083120313A9000130A80086309F
:10032800A700A030A6000A128A110D210A128A110C
:100338000800831603131419A229A3299D2911085B
:100348001F39031DA829A9299D2908000A128A1105
:100358009D210A128A117208831203139300080060
:100368000A128A119D210A128A1183160313111584
:1003780008000A128A119D210A128A118316031392
:100388001114080071088A00700E8300FE0E7E0E9C
:0203980009005A
:04400E00D420FF3F7C
:00000001FF
