:020000040000FA
:060000000A128A110C280F
:10000800FE00030EF0000A08F1000A128A15C32D3B
:100018000A128A110F28FA01FB0183120313E9015E
:10002800EA01EB01EC01ED01EE0183010A128A11EC
:100038007E2B8312031329088039AE002E08B300E3
:100048002908AE002E07AF002F08B900A81F2D28D9
:100058002E282F283914390803193328342843281F
:10006800390A031D3828392841280030A9000030F2
:10007800A8000030A7000030A600A8174B280030C1
:10008800A9000030A8000030A7000030A6002D0805
:100098008039AE002E08B3062D08AE002E07AF003B
:1000A8002F08B400AC1F59285A285B283414340888
:1000B80003195F2860286F28340A031D64286528FF
:1000C8006D280030AD000030AC000030AB000030CF
:1000D800AA00AC1777280030AD000030AC00003023
:1000E800AB000030AA00340803197B287C2881283B
:1000F8003908031D802881288A280030A90000308B
:10010800A8000030A7000030A6007D2B2608AE000E
:100118002E08F2002C080A128A1537260A128A11AC
:10012800730883120313BF007208BE003E08AE00B6
:10013800AF01B001B1013108B8003008B7002F088D
:10014800B6002E08B5003F08AE00AF01B001B101FE
:100158003108BD003008BC002F08BB002E08BA00CB
:100168002708AE002E08F2002B080A128A15372637
:100178000A128A11730883120313BF007208BE00A3
:100188003E08AE00AF01B001B1012E08B5072F0837
:1001980003110318013E0319D228B60730080311CA
:1001A8000318013E0319D928B707310803110318AA
:1001B800013E0319E028B8073F08AE00AF01B001BF
:1001C800B1012E08BA072F0803110318013E0319BD
:1001D800EE28BB07300803110318013E0319F52860
:1001E800BC07310803110318013E0319FC28BD0799
:1001F8002808AE002E08F2002A080A128A153726A7
:100208000A128A11730883120313BF007208BE0012
:100218003E08AE00AF01B001B1012E08B5072F08A6
:1002280003110318013E03191A29B60730080311F0
:100238000318013E03192129B707310803110318D0
:10024800013E03192829B8073F08AE00AF01B001E5
:10025800B1012E08BA072F0803110318013E03192C
:100268003629BB07300803110318013E03193D293D
:10027800BC07310803110318013E03194429BD07BF
:100288000830AE000310B50DB60DB70DB80DAE0BA6
:1002980046292708AE002E08F2002A080A128A15F5
:1002A80037260A128A11730883120313BF007208D3
:1002B800BE003E08AE003F08AF00B001B1012E08F5
:1002C800B5072F0803110318013E03196C29B60757
:1002D800300803110318013E03197329B7073108C1
:1002E80003110318013E03197A29B8072608AE003E
:1002F8002E08F2002B080A128A1537260A128A11CC
:10030800730883120313BF007208BE003E08AE00D4
:100318003F08AF00B001B1012E08B5072F0803113F
:100328000318013E03199929B60730080311031869
:10033800013E0319A029B707310803110318013E2C
:100348000319A729B8070830AE000310B50DB60D7C
:10035800B70DB80DAE0BA9292608AE002E08F2007D
:100368002A080A128A1537260A128A117308831274
:100378000313BF007208BE003E08AE003F08AF007E
:10038800B001B1012E08B5072F0803110318013E6B
:100398000319CF29B607300803110318013E0319C2
:1003A800D629B707310803110318013E0319DD29BF
:1003B800B8072708AE002E08F2002C080A128A1582
:1003C80037260A128A11730883120313BF007208B2
:1003D800BE003E08AE003F08AF00B001B1012E08D4
:1003E800BA072F0803110318013E0319FC29BB079C
:1003F800300803110318013E0319032ABC0731080A
:1004080003110318013E03190A2ABD072808AE0084
:100418002E08F2002B080A128A1537260A128A11AA
:10042800730883120313BF007208BE003E08AE00B3
:100438003F08AF00B001B1012E08BA072F08031119
:100448000318013E0319292ABB07300803110318B2
:10045800013E0319302ABC07310803110318013E75
:100468000319372ABD072808AE002E08F2002C0809
:100478000A128A1537260A128A117308831203137F
:10048800BF007208BE003E08AE003F08AF00B001D2
:10049800B10108300310AE0DAF0DB00DB10DFF3E28
:1004A800031D4E2A2E08BA072F0803110318013E10
:1004B80003195F2ABB07300803110318013E03190B
:1004C800662ABC07310803110318013E03196D2A77
:1004D800BD073508AE003608AF003708B000380849
:1004E800B10018300310B10CB00CAF0CAE0CFF3ECD
:1004F800031D762A2E08BA072F0803110318013E98
:100508000319872ABB07300803110318013E031992
:100518008E2ABC07310803110318013E0319952AD6
:10052800BD070830AE000310B50DB60DB70DB80DF8
:10053800AE0B972A39083407AE00AF01AF0D2E086D
:10054800823EBE002F080318013EFF3EBF00C92AA5
:100558000130AE000310BA0DBB0DBC0DBD0DAE0BC6
:10056800AE2AB81FB82AB92ABA2A3A140130AE00FE
:100578000310B50DB60DB70DB80DAE0BBC2AFF3084
:10058800BE070318BF0AFF30BF07BC1FCC2ACD2AFD
:10059800AC2AB401B81FD12AD22AEE2AFF30350579
:1005A800AE00FF303605AF00FF303705B0007F30B2
:1005B8003805B100310830042F042E040319E52A48
:1005C800E62AE92AB401B40AEE2A3A1CEC2AED2AF2
:1005D800EE2AE62A34080319F22AF32A242B0130DA
:1005E800BA07003003180130BB0700300318013088
:1005F800BC07003003180130BD073D1C042B052B38
:10060800242B3A08AE003B08AF003C08B0003D0878
:10061800B1000130B200310DB10CB00CAF0CAE0C12
:10062800B20B0F2B3108BD003008BC002F08BB00EF
:100638002E08BA000130BE070318BF0A0030BF07F2
:100648003F08803AFF0080307F02031D2D2BFF30CA
:100658003E02031C302B312B3C2B7F3083120313BB
:10066800BD008030BC000030BB000030BA00712BE8
:10067800831203133F08803AFF0080307F02031D76
:10068800472B01303E0203184A2B4B2B572B0030C7
:1006980083120313BD000030BC000030BB000030E3
:1006A800BA00B301712B831203133E08AE002E0863
:1006B800B900FF30BA05FF30BB057F30BC050030FC
:1006C800BD05391C682B692B6A2BBC173908AE008D
:1006D80003102E0CAF002F08BD003308AE002E0803
:1006E800BD043D08A9003C08A8003B08A7003A083B
:1006F800A60008000A128A1560260A128A110A1230
:100708008A15B9270A128A110A128A15F3250A12BC
:100718008A11F601F60A01300A128A1168270A12AC
:100728008A110B30F7008030F8000A128A157327F7
:100738000A128A11831203130608CB004B08ED0036
:100748000508CB004B08EC006D08CB00CC01CD01AF
:10075800CE014E08F5004D08F4004C08F3004B0894
:10076800F20001300A128A11C8250A128A11750886
:1007780083120313AD007408AC007308AB00720851
:10078800AA003C30A900A030A8009030A7002E3065
:10079800A6000A128A111D200A128A118312031355
:1007A8002908C3002808C2002708C1002608C0007D
:1007B8000A128A1184260A128A1183120313400826
:1007C800CF004F08E8006E08CB004B08E7006C0824
:1007D800CB004B08E6001E30CB004B08A60068088B
:1007E800CC00CD014C08A7004D08A8006708CE0032
:1007F800CF014E08A9004F08AA006608D000D10111
:100808005008AB005108AC0052300A128A11DE249D
:100818000A128A11023083120313CB004B08F60028
:1008280002300A128A1168270A128A115230F70018
:100838000030F8000A128A1573270A128A110A1260
:100848008A15CA250A128A115130F2000030F300C5
:100858000A128A15DC250A128A110030F200F30008
:100868000A128A158D260A128A1172088312031336
:1008780086000A128A15D3250A128A1102308312B9
:100888000313CD000430CC00B930CB00CB0B4A2C7D
:10089800CC0B4A2CCD0B4A2C512C0A128A15CA258E
:1008A8000A128A116130F2000030F3000A128A1528
:1008B800DC250A128A110030F200F3000A128A15A8
:1008C8008D260A128A1172088312031385000A12F0
:1008D8008A15D3250A128A11023083120313CD0018
:1008E8000430CC00B930CB00CB0B782CCC0B782C57
:1008F800CD0B782C7F2C0A128A15CA250A128A1168
:100908008030F2000030F3000A128A15DC250A1242
:100918008A11F330F2000030F3000A128A15DC2540
:100928000A128A110A128A15D3250A128A1102306C
:1009380083120313CD000430CC00B930CB00CB0BAD
:10094800A32CCC0BA32CCD0BA32CAA2C0A128A15F2
:10095800CA250A128A118130F2000030F3000A1207
:100968008A15DC250A128A110030F200F3000A12F7
:100978008A158D260A128A11720883120313CB0076
:100988004B08EE000A128A15D3250A128A11023082
:1009980083120313CD000430CC00B930CB00CB0B4D
:1009A800D32CCC0BD32CCD0BD32CDA2C9E2B0A12A8
:1009B8008A110C2883120313B5002730AD002D08C7
:1009C800B000B12D253036060319EB2CEC2CF82C91
:1009D8003608AD00350884002D08831380000130E7
:1009E800AD002D08B507B12DB1010130A607FF30C4
:1009F800260784000A128A11CA270A128A11B60029
:100A0800AD00AE012E08003A03190B2DB12D2D08AB
:100A1800003A0319C32D643A0319162D0D3A031928
:100A2800162DB12D3008840083130008B300840A02
:100A38000008B4000230AD002D08B007B41F252D02
:100A4800262D2F2D0330AD002D08B104B309B409AC
:100A5800B30A0319B40AB601B60A3608AD002D0761
:100A6800013E84000A128A11CA270A128A11AE00AE
:100A78000A128A11CA270A128A11AF002F083402F3
:100A8800031D482D2E08330203184B2D4C2D4D2DD8
:100A9800572D0130AD002D08B60705303606031D69
:100AA800562D572D312D3108033903195C2D5D2D35
:100AB800682D2D30AD00350884002D088313800083
:100AC8000130AD002D08B5073608AD002D08B2007D
:100AD800A82D0A30A0000030A1003208AD002D0773
:100AE800013E84000A128A11CA270A128A11F200EA
:100AF8000A128A11CA270A128A11F3003408F5006B
:100B08003308F4000A128A152F270A128A1173086B
:100B180083120313A3007208A2000A128A15F3268F
:100B28000A128A11831203132008303EAE002E08E1
:100B3800B6003608AD00350884002D088313800000
:100B48000130AD002D08B507FF30AD002D08B20704
:100B5800320A031DB02DB12D6D2D0130A607FF30CF
:100B6800260784000A128A11CA270A128A11AD00C0
:100B78002D08B6003608031DC22DC32DE62C3508F6
:100B8800840083138001080083120313A000200847
:100B98000319CF2DD02DE42DF51FD32DD42DE42D01
:100BA8007209A2007309A3007409A4007509A500BD
:100BB800A20A0319A30A0319A40A0319A50AEC2D0A
:100BC8007508A5007408A4007308A3007208A200A1
:100BD8007508740473047204031DF32DF42DFD2DA0
:100BE8000030F5000030F4000030F3000030F2006F
:100BF800832E9630F6007608A1000F2E0130F600FD
:100C08007608A10701300310A50CA40CA30CA20CB4
:100C1800FF3E031D072EFE302505031D142E152E3D
:100C2800022E312E0130F6007608A1070130A20706
:100C3800003003180130A307003003180130A4075F
:100C4800003003180130A50701300310A50CA40CCF
:100C5800A30CA20CFF3E031D292EFF302505031D02
:100C6800362E372E162E432E0130A1020130F60003
:100C78000310A20DA30DA40DA50DF60B3C2EA41B6D
:100C8800462E472E4D2E0230210203184C2E4D2E93
:100C9800382E2118502E512E592EFF30A205FF3024
:100CA800A3057F30A405FF30A5050310A10C21087A
:100CB800F600F701F801F90118300310F60DF70DE9
:100CC800F80DF90DFF3E031D612E7608A204770882
:100CD800A3047808A4047908A50420080319752E2C
:100CE800762E7B2EF51F792E7A2E7B2EA5172508BA
:100CF800F5002408F4002308F3002208F200080095
:100D0800031083120313420D430DC4004408CA00A4
:100D18004A08031D902E912E9A2E0030C3000030F1
:100D2800C2000030C1000030C000FF2E4008C400DF
:100D38004108C5004208C6004308C7001F30031019
:100D4800C70CC60CC50CC40CFF3E031DA32E4408DB
:100D5800C8004808C900C217FF30C005FF30C105E8
:100D6800FF30C2050030C3059630CA02CA1FBD2E27
:100D7800BE2ED82E4A08803A973E0318C42EC52E98
:100D8800C62E912E01300310C30CC20CC10CC00C2E
:100D9800FF3E031DC72E0130C4004408CA07031DC7
:100DA800D62ED72EC62EEF2E20304A02031CDD2E5B
:100DB800DE2EEA2E912E0130C4000310C00DC10DA5
:100DC800C20DC30DC40BE12E0130CA024A08031D2F
:100DD800EE2EEF2EDF2E49080319F32EF42EFF2EE8
:100DE800C009C109C209C309C00A0319C10A031904
:100DF800C20A0319C30A0800003083120313A400AF
:100E08000030A3000030A2000030A100750874046F
:100E1800730472040319112F122F5F2FA501A50A5D
:100E2800222F0130A0000310F20DF30DF40DF50D83
:100E3800A00B172F0130A0002008A507F51F252FAC
:100E4800262F152F0130A0000310A10DA20DA30D10
:100E5800A40DA00B282F75087902031D3D2F7408D7
:100E68007802031D3D2F73087702031D3D2F72087A
:100E78007602031C402F412F502F7208F602730888
:100E8800031C730FF7027408031C740FF80275082B
:100E9800031C750FF902211401300310F50CF40C32
:100EA800F30CF20CFF3E031D512F0130A502031D68
:100EB8005E2F5F2F262F2408F5002308F400220850
:100EC800F3002108F200080083120313A000200396
:100ED800031D6F2F702F952F76087F3EF700770838
:100EE800A3002308F70004300310F70CFF3E031D8E
:100EF800782F7708F8007808A10023080F39F70041
:100F08007708A20021080A128A1500260A128A11F7
:100F18008312031322080A128A1500260A128A115C
:100F2800BF2F02302006031D9A2F9B2FBF2F760854
:100F3800BF3EF7007708A3002308F700043003102A
:100F4800F70CFF3E031DA32F7708F8007808A100CF
:100F58002308F039F7007708A20021080A128A1539
:100F680000260A128A118312031322080A128A150C
:100F780000260A128A110800FF1BCA2F83137F1844
:100F880083170008840A0319FF0A080007308A003B
:100F98000408840A82070034013400340A34003417
:100FA80064340034E83403341034273456344F346E
:100FB8004C343A3420342034543445344D3450348D
:100FC8003A342034203443344F344E3454343A3491
:100FD8000034253464342034203420342034203440
:100FE8002534643420342034203420342034203410
:060FF800253464340034CE
:101B7A00F2007208831203138800080071088A00B1
:101B8A00700E8300FE0E7E0E09000A128A15E625E3
:101B9A000A128A1583160313111408000A128A15E9
:101BAA00E6250A128A1583160313111508000A126C
:101BBA008A15E6250A128A157208831203139300FE
:101BCA000800831603131419EB2DEC2DE62D1108CA
:101BDA001F39031DF12DF22DE62D080000300A12DF
:101BEA008A1500260A128A1501300A128A15002659
:101BFA000A128A150800F5008312031309107508E2
:101C0A000A128A15BD250A128A15831203130915A9
:101C1A000630F4003030F300F30B112EF40B112EC2
:101C2A0000008312031309110800F4007408F3007A
:101C3A007308F5007508F3007308F600831203139E
:101C4A00091476080A128A15BD250A128A15831202
:101C5A00031309150D30F300F30B312E831203130E
:101C6A000911080083120313A400A001A10172083C
:101C7A00F400F5017408A2007508A300241C462E7E
:101C8A00472E4D2E2208A0070318A10A2308A107F0
:101C9A0001300310A20DA30DFF3E031D4E2E0310AB
:101CAA00A40C2408031D5A2E5B2E432E2108F30090
:101CBA002008F20008008316031788018901831699
:101CCA000313850186018312031385018601831696
:101CDA000313880189018312031385018601870191
:101CEA0088018901831603130F128F160F170F1419
:101CFA00003083120313A9000130A8008630A70020
:101D0A00A030A6000A128A15BB260A128A150800F4
:101D1A000A128A15E6250A128A15831603139115E3
:101D2A000A128A15E6250A128A1583120313130862
:101D3A00F400F5017408F6007508F7000A128A150E
:101D4A00E6250A128A1572037304031DAD2EAE2E00
:101D5A00B22E831603139112B52E8316031391160E
:101D6A0011167708F3007608F2000800283083126B
:101D7A000313940083160313910183120313260895
:101D8A00AA002708AB002808AC002908AD000230D9
:101D9A000310AA0DAB0DAC0DAD0DFF3E031DCD2EEC
:101DAA002D08F5002C08F4002B08F3002A08F2008D
:101DBA000030F9007A30F8001230F7000030F600EF
:101DCA000A128A1100270A128A157208FF3E831620
:101DDA00031393009401871507160800831203134F
:101DEA00200821040319FA2EFB2E2A2FA501A50A81
:101DFA00092F01300310A00DA10DFF3E031DFF2E78
:101E0A000130A4002408A507A11F0C2F0D2FFE2EB8
:101E1A0021082302031D132F20082202031C162F58
:101E2A00172F1D2F2008A2022108031CA303A302B7
:101E3A0001300310A10CA00CFF3E031D1E2F013020
:101E4A00A502031D292F2A2F0D2F2308A1002208DE
:101E5A00A0000800F701F801720873040319362F6D
:101E6A00372F6E2FF901F90A452F01300310F20DB1
:101E7A00F30DFF3E031D3B2F0130F6007608F907EC
:101E8A00F31F482F492F3A2F01300310F70DF80D91
:101E9A00FF3E031D4A2F73087502031D562F720851
:101EAA007402031C592F5A2F612F7208F402730807
:101EBA00031CF503F502771401300310F30CF20C3E
:101ECA00FF3E031D622F0130F902031D6D2F6E2F95
:101EDA00492F7808F3007708F200080083120313E9
:101EEA00A301A4019C2F23087707A1007808A0006A
:101EFA000318A00AA31F822FA0038312031320082A
:101F0A00A2002208FF00210884000A128A11C027B1
:101F1A000A128A150A128A151A260A128A15013015
:101F2A0083120313A3070318A40A0030A407230883
:101F3A007707A1007808A0000318A00AA31FA62FFC
:101F4A00A003831203132008A2002208FF0021081D
:101F5A0084000A128A11C0270A128A15003A031D40
:101F6A00B72FB82F782F080000300A128A15BD251E
:101F7A000A128A151A30F700F830F600F60BC32F4A
:101F8A00F70BC32F000030300A128A1500260A12F6
:101F9A008A150730F7007D30F600F60BD22FF70BC3
:101FAA00D22F30300A128A1500260A128A154230B8
:101FBA00F600F60BDE2F000030300A128A150026D2
:101FCA000A128A153C300A128A1500260A128A1544
:101FDA0008300A128A1500260A128A1501300A12D6
:101FEA008A1500260A128A1506300A128A15002650
:061FFA000A128A1508001E
:04400E00D420FF3F7C
:00000001FF
