:020000040000FA
:060000000A128A110C280F
:10000800FE00030EF0000A08F1000A128A11F62910
:100018000A128A110F28FA01FB0183010A128A11B8
:1000280015280A128A11A1210A128A110A128A11A4
:10003800ED210A128A115130F2000030F3000A1241
:100048008A11DA210A128A110030F200F3000A122A
:100058008A1173210A128A11720883120313860007
:100068000A128A11E4210A128A1102308312031338
:10007800B0000430AF00B930AE00AE0B4128AF0B72
:100088004128B00B412848280A128A11ED210A128A
:100098008A116130F2000030F3000A128A11DA2165
:1000A8000A128A110030F200F3000A128A11732131
:1000B8000A128A1172088312031385000A128A1120
:1000C800E4210A128A11023083120313B0000430AB
:1000D800AF00B930AE00AE0B6F28AF0B6F28B00B76
:1000E8006F2876280A128A11ED210A128A118030A7
:1000F800F2000030F3000A128A11DA210A128A117A
:10010800F330F2000030F3000A128A11DA210A12E1
:100118008A110A128A11E4210A128A110230831202
:100128000313B0000430AF00B930AE00AE0B9A280C
:10013800AF0B9A28B00B9A28A1280A128A11ED2130
:100148000A128A118130F2000030F3000A128A1173
:10015800DA210A128A110030F200F3000A128A1119
:1001680073210A128A1172088312031388000A1273
:100178008A11E4210A128A11023083120313B00093
:100188000430AF00B930AE00AE0BC828AF0BC8289A
:10019800B00BC828CF281A280A128A110C28003058
:1001A80083120313A4000030A3000030A200003023
:1001B800A10075087404730472040319E428E5287F
:1001C8003229A501A50AF5280130A0000310F20D77
:1001D800F30DF40DF50DA00BEA280130A00020085E
:1001E800A507F51FF828F928E8280130A000031012
:1001F800A10DA20DA30DA40DA00BFB287508790273
:10020800031D102974087802031D1029730877024A
:10021800031D102972087602031C132914292329A7
:100228007208F6027308031C730FF7027408031CA4
:10023800740FF8027508031C750FF90221140130B8
:100248000310F50CF40CF30CF20CFF3E031D2429EB
:100258000130A502031D31293229F9282408F500A7
:100268002308F4002208F3002108F20008002830CF
:10027800831203139400831603139101831203134B
:100288002608AA002708AB002808AC002908AD00FA
:1002980002300310AA0DAB0DAC0DAD0DFF3E031DD2
:1002A8004D292D08F5002C08F4002B08F3002A0826
:1002B800F2000030F9007A30F8001230F700003010
:1002C800F6000A128A11D3200A128A117208FF3E18
:1002D80083160313930094018715071608000A1262
:1002E8008A11CD210A128A118316031391150A1255
:1002F8008A11CD210A128A11831203131308F400FC
:10030800F5017408F6007508F7000A128A11CD2164
:100318000A128A1172037304031D932994299829D8
:100328008316031391129B29831603139116111632
:100338007708F3007608F20008008316031788018F
:10034800890183160313850186018312031385012E
:10035800860183160313880183120313850186011E
:10036800870188018901831603130F128F160F174F
:100378000F14003083120313A9000130A80086303F
:10038800A700A030A6000A128A113B210A128A117E
:100398000800831603131419D229D329CD2911086B
:1003A8001F39031DD829D929CD2908000A128A1115
:1003B800CD210A128A1172088312031393000800D0
:1003C8000A128A11CD210A128A11831603131115F4
:1003D80008000A128A11CD210A128A118316031302
:1003E8001114080071088A00700E8300FE0E7E0E3C
:0203F8000900FA
:04400E00D420FF3F7C
:00000001FF
