:020000040000FA
:060000000A128A110C280F
:10000800FE00030EF0000A08F1000A128A11BB2D47
:100018000A128A110F28FA01FB0183120313E9015E
:10002800EA01EB01EC0183160313A001A101A2016F
:10003800A301A401A501A601A701A801A9018301A3
:100048000A128A11702EFF0000308A007F0882078A
:100058002C280A128A119C2E023083160313AC0036
:100068004530AB00A930AA00AA0B3828AB0B3828BA
:10007800AC0B38288316031324080A128A11942318
:100088000A128A1156300A128A1155260A128A1142
:10009800023083160313AC004530AB00A930AA0028
:1000A800AA0B5428AB0B5428AC0B54288312031307
:1000B8006C089900023083160313AC004530AB007E
:1000C800A930AA00AA0B6628AB0B6628AC0B6628D9
:1000D800831203136B089900023083160313AC00D4
:1000E8004530AB00A930AA00AA0B7828AB0B7828BA
:1000F800AC0B7828831203136A0899000230831620
:100108000313AC004530AB00A930AA00AA0B8A281B
:10011800AB0B8A28AC0B8A2854300A128A11552650
:100128000A128A110B300A128A1155260A128A11EC
:10013800831203138C1EA128A2289C281A08D03EDB
:1001480083160313AA002A0883120313E900333025
:100158001A020318B028B1289C288C1EB428B52888
:10016800B1281A08D03E83160313AA002A08FA00F9
:100178000230831203136906031DC328C428CA2842
:1001880036301A020318C928CA28B1288C1ECD286F
:10019800CE28CA281A08D03E83160313AA002A08B4
:1001A800A8000230831203136906031DDC28DD282A
:1001B800E92805307A06031DE228E328E9283630C5
:1001C8001A020318E828E928CA28690883160313BD
:1001D800AA00AB012A0883120313BA00831603137B
:1001E8002B0883120313BB007A0883160313AC0091
:1001F800AD012C0883120313BC00831603132D08CA
:1002080083120313BD000A128A1142250A128A11A9
:10021800831203133A0883160313AE002E08A600B0
:100228002608AA00AB012A0883120313BA00831612
:1002380003132B0883120313BB0083160313280828
:10024800AC00AD012C0883120313BC008316031302
:100258002D0883120313BD000A128A1142250A12BF
:100268008A11831203133B0883160313A100831218
:1002780003133A0883160313A000023083160313EE
:10028800AC004530AB00A930AA00AA0B4929AB0B3A
:100298004929AC0B49298316031321088312031338
:1002A800B20083160313200883120313B1003B30F6
:1002B8000A128A1155260A128A1183160313210875
:1002C800A3002008A200080083120313B000872AA5
:1002D80025302F060319712972299829300A8400BC
:1002E80083130008031979297A2989292F08A80076
:1002F8002808F200300A840000080A128A11272010
:100308000A128A11831203136B292F08A8003008D8
:10031800840000088400280880000130A800300804
:100328008400280880076B29AB010130A607FF303D
:10033800260784000A128A1121230A128A11AF00A3
:10034800A800A9012908003A0319AB29872A280817
:10035800003A03199B2A643A0319B6290D3A03197E
:10036800B629872A2708840083130008A8000230CA
:100378008007280884000008AD00840A0008AE0041
:10038800AE1FC729C829D1290330A8002808AB0403
:10039800AD09AE09AD0A0319AE0AAF01AF0A2F08BD
:1003A800A8002807013E84000A128A1121230A1294
:1003B8008A11A9000A128A1121230A128A11AA0095
:1003C8002A082E02031DEA2929082D020318ED29FF
:1003D800EE29EF29F9290130A8002808AF070530D0
:1003E8002F06031DF829F929D3292B0803390319E6
:1003F800FE29FF29222A300A8400831300080319E2
:10040800062A072A142A2D30A8002808F200300AE4
:10041800840000080A128A1127200A128A11222A47
:100428002D30A800300884000008840028088000C7
:100438000130A800300884002808800783120313BD
:100448002F08A8002808AC007C2A0A30A000003039
:10045800A1002C08A8002807013E84000A128A116E
:1004680021230A128A11F2000A128A1121230A1280
:100478008A11F3002E08F5002D08F4000A128A11DB
:10048800C1240A128A11730883120313A300720885
:10049800A2000A128A117F250A128A1183120313F5
:1004A8002008303EA9002908AF00300A84008313D1
:1004B80000080319602A612A6E2A2F08A800280854
:1004C800F200300A840000080A128A1127200A1252
:1004D8008A117C2A2F08A8003008840000088400AC
:1004E800280880000130A800300884002808800708
:1004F800FF3083120313A8002808AC072C0A031D39
:10050800862A872A292A013083120313A607FF3077
:10051800260784000A128A1121230A128A11A800C8
:100528002808AF002F08031D9A2A9B2A6C29A601C8
:10053800A701080083120313A500A62A0130A00012
:100548002008A50725088400203083130006031916
:10055800AE2AAF2AA22A250884000930000603190A
:10056800B62AB72AA22AA301A401A2012508840059
:100578002D300006031DC12AC22ACB2A0130A00053
:100588002008A2070130A0002008A507FD2A250899
:1005980084002B300006031DD22AD32AFD2A0130FD
:1005A800A0002008A507FD2A83120313250884004C
:1005B8002408F3002308F2000A30F4000030F500A4
:1005C8000A128A110F260A128A1183130008720769
:1005D80083120313A0000030031801307307A10031
:1005E8002008D03EA30021080318013EFF3EA400C6
:1005F800D32A2508840000080A128A118A260A12BA
:100608008A110318082B092BD82A831203132208EE
:1006180003190F2B102B1C2B2309A0002409A10060
:10062800A00A0319A10A2008F8002108F900202BC4
:100638002408F9002308F800080003308A00040899
:10064800840A82070034013400340A3400346434E4
:100658000034E83403341034273449346E346734B2
:100668007234653473346134723420346E347534C2
:100678006D34653472346F342034703461347234BC
:100688006134203465346C34203463346F346E3410
:100698007434613464346F3472343A3420345234EC
:1006A80061346E3467346F34283430342D34323446
:1006B8003534353429340D34003445346C34203421
:1006C8006E3475346D34653472346F342034653467
:1006D8006C3465346734693464346F342034653479
:1006E80073343A3420342534643420340D340034DF
:1006F800563461346C346F34723420346434653465
:100708006C34203463346F346E347434613464343C
:100718006F3472343A340D34003425346434003480
:10072800F9006430F2000030F300790883120313F3
:10073800A400A5012408F4002508F5000A128A116E
:10074800FF230A128A11720883120313A6002608CF
:10075800EC006430F2000030F3007908A400A50131
:100768002408F4002508F5000A128A1168240A12E0
:100778008A11720883120313A6002608FB000A30A8
:10078800F2000030F3007B08A400A5012408F4005F
:100798002508F5000A128A11FF230A128A11720825
:1007A80083120313A6002608EB000A30F20000307B
:1007B800F3007B08A400A5012408F4002508F5002F
:1007C8000A128A1168240A128A1172088312031302
:1007D800A6002608EA006C08303EA4002408EC00B5
:1007E8006B08303EA4002408EB006A08303EA400E1
:1007F8002408EA00080083120313A101F31F052C43
:10080800062C0D2CF209F309F20A0319F30AA101C7
:10081800A10AF51F102C112C1A2CF409F509F40A59
:100828000319F50A0130F6007608A106A201A30112
:10083800720873040319212C222C592CA001A00A38
:10084800302C01300310F20DF30DFF3E031D262C52
:100858000130F6007608A007F31F332C342C252C22
:1008680001300310A20DA30DFF3E031D352C7308A4
:100878007502031D412C72087402031C442C452C7C
:100888004C2C7208F4027308031CF503F5022214B9
:1008980001300310F30CF20CFF3E031D4D2C013008
:1008A800A002031D582C592C342C210803195D2C47
:1008B8005E2C632CA209A309A20A0319A30A230820
:1008C800F3002208F2000800F801F51F6C2C6D2CCB
:1008D800742CF409F509F40A0319F50AF801F80A61
:1008E800F31F772C782C7D2CF209F309F20A0319EF
:1008F800F30A720873040319822C832CB22CF701B3
:10090800F70A912C01300310F20DF30DFF3E031D81
:10091800872C0130F6007608F707F31F942C952CE6
:10092800862C73087502031D9B2C72087402031C25
:100938009E2C9F2CA52C7208F4027308031CF50347
:10094800F50201300310F30CF20CFF3E031DA62C38
:100958000130F702031DB12CB22C952C780803192D
:10096800B62CB72CBC2CF409F509F40A0319F50ABE
:100978007508F3007408F2000800F701F80172081E
:1009880073040319C82CC92C002DF901F90AD72CB6
:1009980001300310F20DF30DFF3E031DCD2C013085
:1009A800F6007608F907F31FDA2CDB2CCC2C013083
:1009B8000310F70DF80DFF3E031DDC2C73087502BC
:1009C800031DE82C72087402031CEB2CEC2CF32C8E
:1009D8007208F4027308031CF503F502771401305A
:1009E8000310F30CF20CFF3E031DF42C0130F90246
:1009F800031DFF2C002DDB2C7808F3007708F2008C
:100A080008008316031788018901831603138501DB
:100A18000614861488018312031385018601870151
:100A280088018901831603130F128F160F170F14ED
:100A3800811303309500161496141812181583168E
:100A480003178711193083160313990001309A0090
:100A58008312031398171813181683160313181301
:100A68009816831203138C120C128B170B1783160C
:100A780003138C120C120B148B1508006B308312A5
:100A88000313BE003E08B1003B08B3003A08B200A9
:100A980053300A128A1134260A128A116B308312D3
:100AA8000313BE003E08B1003D08B3003C08B20085
:100AB8003F300A128A1134260A128A113F308312F3
:100AC8000313BE003E08F20053300A128A11E625CD
:100AD8000A128A1153300A128A119E220A128A11A6
:100AE800790883120313E8007808E7006808BB0058
:100AF8006708BA00080083120313200821040319A9
:100B0800862D872DB62DA501A50A952D0130031038
:100B1800A00DA10DFF3E031D8B2D0130A40024085C
:100B2800A507A11F982D992D8A2D21082302031DA1
:100B38009F2D20082202031CA22DA32DA92D2008D9
:100B4800A2022108031CA303A30201300310A10C75
:100B5800A00CFF3E031DAA2D0130A502031DB52DD3
:100B6800B62D992D2308A1002208A00008000B1C0F
:100B7800BE2DBF2DDF2D831203130618C42DC52DDE
:100B8800CF2D831603132408013EA400250803185B
:100B9800013E003EA50083128618D32DD42DDE2DEC
:100BA800831603132408FF3EA40025080318013EFA
:100BB800FF3EA5000B1071088A00700E8300FE0E20
:100BC8007E0E0900F4007408F3007308F500F02D98
:100BD8000130F3007308F5077508840083130008D3
:100BE800031DF72DF82DEC2D012E0130F3007308AD
:100BF800F5070130F3007308F20772088400000853
:100C0800F30075088400730880000008031D0D2E8A
:100C18000E2EF92D0800F601F701721C142E152E60
:100C28001B2E7408F6070318F70A7508F707013032
:100C38000310F40DF50DFF3E031D1C2E01300310AB
:100C4800F30CF20CFF3E031D232E72087304031DE0
:100C58002E2E2F2E112E7708F3007608F2000800AA
:100C680083120313B6003608B4003408B800B9017B
:100C78003230B4003408B7003108B4003408A60094
:100C88003730B5003508A70038300A128A116821B4
:100C98000A128A118312031338088400831380010F
:100CA800080083120313B600B7010130B3003308FC
:100CB800B8003130B3003308B5003608B300330844
:100CC800A6003530B4003408A70037300A128A115C
:100CD80068210A128A1108000A128A1105250A12C7
:100CE8008A118316031324088312031385008316BD
:100CF800031322088312031388000A128A11302072
:100D08000A128A11752E0A128A110C28F300F201B0
:100D18003A3073020318912E922E9A2E30307302B5
:100D2800031C972E982E9A2EF201F20A720C0800D4
:100D3800831203130C1EA12EA22E9C2E720899005A
:020D48000800A1
:04400E00D420FF3F7C
:00000001FF
